:100000000C9466000C9478000C9478000C947800A2
:100010000C9478000C9478000C9478000C94780080
:100020000C9478000C9478000C9478000C94780070
:100030000C9478000C9478000C9478000C94EB02EB
:100040000C9478000C9478000C9437020C9478008F
:100050000C9478000C9478000C9478000C94780040
:100060000C9478000C9478000C9478000C94780030
:100070000C9478000C9478000C9478000C94780020
:100080000C9478000C9478000C9478000C94780010
:100090000C9478000C9478000C9478000C94780000
:1000A0000C9478000C9478000C9478000C947800F0
:1000B0000C9478000C9478000C9478000C94DA027C
:1000C0000C94CB020C9478000C94780011241FBE81
:1000D000CFEFD8E0DEBFCDBF21E0A0E0B1E001C0AE
:1000E0001D92A930B207E1F70E94B4010C942203DB
:1000F0000C940000CF93DF9381E080936F0078949D
:100100001092020110920101019B17C04FE9C2EB4E
:10011000D0E031E5A0EBB0E0E1EBF0E024E091E0ED
:100120008EB184278EB938831C922083B89BFECF72
:100130001C92108297BB0199F3CF8FEF9FEF9093A2
:1001400002018093010110926F001092060110923B
:1001500005018BB9DF91CF91089575981092020136
:10016000109201011092060110920501669B54C085
:1001700039E09BB1209105018091060140E1249F67
:10018000800D112489278BB900990DC0809106013B
:10019000811103C03093060103C081508093060192
:1001A000009BFECF2CC001990DC0809106018930C3
:1001B00019F41092060103C08F5F80930601019B22
:1001C000FECF1DC005990DC080910501811103C0AE
:1001D0003093050103C0815080930501059BFECF3C
:1001E0000EC006990CC080910501893019F4109257
:1001F000050103C08F5F80930501069BFECF9BB175
:10020000209105018091060140E1249F800D112479
:1002100089278BB96699ADCF669BFECF2FEF3FEF55
:1002200082E090E0009905C0909302018093010163
:10023000F9CF019905C01092020110920101F2CF8D
:10024000029905C03093020120930101EBCF66991A
:10025000E9CF759A8FEF9FEF909302018093010190
:10026000669BFECF0895CF93DF9381309105D9F43B
:1002700024E030E06FEBC2EBD0E051E5A0EBB0E062
:10028000E1EBF0E044E091E08EB186278EB958832F
:100290001C924083B89BFECF1C92108297BB2150CA
:1002A000310991F71CC0892BD1F422E030E06FEBCB
:1002B000C2EBD0E058E3A0EBB0E0E1EBF0E044E0CB
:1002C00091E08EB186278EB958831C924083B89BEB
:1002D000FECF1C92108297BB2150310991F7DF911C
:1002E000CF910895E1EDF0E0208128612083A2ED17
:1002F000B0E02C9126602C932C91277F2C932081A9
:1003000020682083DC01CB01880F991FAA1FBB1F27
:10031000880F991FAA1FBB1F9C01AD01220F331F1D
:10032000441F551F220F331F441F551F60E074E206
:1003300084EF90E00E940003215031092093D40003
:100340003093D50008958091D00088231CF48091CB
:10035000D600089580E008958093D600E0EDF0E0A7
:10036000808185FFFDCF08958FEF8AB98BB99BEB14
:100370009DB9759A11B882B983E886BD14BC84E032
:1003800085BD91E090936E0095E8909385009EEE78
:1003900090938400109280008093810060E875E261
:1003A00080E090E00E947201789410920701109210
:1003B00008010F2EF3E0EF2EF1E0FF2EF02D0FEFEE
:1003C0001FEFC1E0D0E00F2EF3E5DF2EF02D0F2E52
:1003D000F4E5CF2EF02D009908C0D0930201C09310
:1003E0000101CE010E94330124C0019911C0109275
:1003F00002011092010180E090E00E943301F701B8
:1004000080810E94AC01109204011092030111C07E
:10041000029905C010930201009301010AC0669978
:1004200008C01093020100930101669BFECF0E9459
:10043000AD000E94A301809300018D3461F680918C
:10044000010190910201019729F4D09200018D2DB4
:100450000E94AC018091010190910201029709F084
:10046000BACFC09200018C2D0E94AC01B4CF1F9274
:100470000F920FB60F9211242F933F934F935F93D8
:100480006F937F938F939F93AF93BF93EF93FF935C
:10049000809107018F5F80930701893118F483E809
:1004A00086BD68C0809108018A3008F05DC09BB1AC
:1004B000209105018091060130E1239F800D1124D8
:1004C00089278BB9809101019091020181309105BA
:1004D000A9F4809106018F5F8A3019F0809306019C
:1004E0002EC010920601809105018F5F8A3019F0AD
:1004F0008093050124C01092050121C0823091052E
:10050000B1F48091060181110EC089E0809306014B
:1005100080910501811103C00E947A0010C08150B2
:10052000809305010CC081508093060108C001969C
:1005300031F410920601109205018FEF8BB99BB137
:10054000209105018091060130E1239F800D112447
:1005500089278BB91092070183E886BD8091080135
:100560008F5F8093080106C0109207011092080166
:1005700083E886BDFF91EF91BF91AF919F918F91DD
:100580007F916F915F914F913F912F910F900FBE8F
:100590000F901F9018951F920F920FB60F92112473
:1005A0008F9388E78093D6008F910F900FBE0F90A6
:1005B0001F9018951F920F920FB60F9211248F93D0
:1005C0008091D600813609F475988F910F900FBEF7
:1005D0000F901F9018951F920F920FB60F92112433
:1005E0008F9385E8809385008EEE809384008BB195
:1005F00080958BB98F910F900FBE0F901F9018951B
:10060000A1E21A2EAA1BBB1BFD010DC0AA1FBB1F16
:10061000EE1FFF1FA217B307E407F50720F0A21B88
:10062000B30BE40BF50B661F771F881F991F1A94F5
:1006300069F760957095809590959B01AC01BD011F
:08064000CF010895F894FFCFEB
:00000001FF
