S010000050726F6A656374322E737265630B
S11300000C9466000C9478000C9478000C9478009E
S11300100C9478000C9478000C9478000C9478007C
S11300200C9478000C9478000C9478000C9478006C
S11300300C9478000C9478000C9478000C9478005C
S11300400C9478000C9478000C948B000C94780039
S11300500C9478000C9478000C9478000C9478003C
S11300600C9478000C9478000C9478000C9478002C
S11300700C9478000C9478000C9478000C9478001C
S11300800C9478000C9478000C9478000C9478000C
S11300900C9478000C9478000C9478000C947800FC
S11300A00C9478000C9478000C9478000C947800EC
S11300B00C9478000C9478000C9478000C947800DC
S11300C00C9478000C9478000C94780011241FBED2
S11300D0CFEFD8E0DEBFCDBF21E0A0E0B1E001C0AA
S11300E01D92A330B207E1F70E947A000C94CB0072
S11300F00C9400008FEF8AB98BB983E886BD14BCD9
S113010084E085BD81E080936E00789410920101B3
S113011010920201FFCF1F920F920FB60F9211247B
S11301208F939F93809101018F5F809301018931A7
S113013018F483E886BD28C0809102018A30F0F467
S11301409BB18091000189278BB9809100018F5F59
S11301508A3019F08093000102C0109200019BB113
S11301608091000189278BB91092010183E886BD33
S1130170809102018F5F8093020106C010920101F9
S11301801092020183E886BD9F918F910F900FBE5C
S10D01900F901F901895F894FFCF0C
S9030000FC
