S010000050726F6A656374322E737265630B
S11300000C9466000C9478000C9478000C9478009E
S11300100C9478000C9478000C9478000C9478007C
S11300200C9478000C9478000C9478000C9478006C
S11300300C9478000C9478000C9478000C9478005C
S11300400C9478000C9478000C948B000C94780039
S11300500C9478000C9478000C9478000C9478003C
S11300600C9478000C9478000C9478000C9478002C
S11300700C9478000C9478000C9478000C9478001C
S11300800C9478000C9478000C9478000C9478000C
S11300900C9478000C9478000C9478000C947800FC
S11300A00C9478000C9478000C9478000C947800EC
S11300B00C9478000C9478000C9478000C947800DC
S11300C00C9478000C9478000C94780011241FBED2
S11300D0CFEFD8E0DEBFCDBF21E0A0E0B1E001C0AA
S11300E01D92A430B207E1F70E947A000C94E50057
S11300F00C9400008FEF8AB98BB983E886BD14BCD9
S113010084E085BD81E080936E00789410920201B2
S113011010920301FFCF1F920F920FB60F9211247A
S11301202F933F938F939F93809102018F5F8093CE
S11301300201893118F483E886BD3EC08091030131
S11301408A30A0F59BB1209100018091010130E13A
S1130150239F800D112489278BB9809101018F5F22
S11301608A3019F0809301010CC010920101809132
S113017000018F5F8A3019F08093000102C0109251
S113018000019BB1209100018091010130E1239F86
S1130190800D112489278BB91092020183E886BD52
S11301A0809103018F5F8093030106C010920201C6
S11301B01092030183E886BD9F918F913F912F9107
S11101C00F900FBE0F901F901895F894FFCF6C
S9030000FC
