S010000050726F6A656374322E737265630B
S11300000C9466000C9478000C9478000C9478009E
S11300100C9478000C9478000C9478000C9478007C
S11300200C9478000C9478000C9478000C9478006C
S11300300C9478000C9478000C9478000C9478005C
S11300400C9478000C9478000C949B010C94780028
S11300500C9478000C9478000C9478000C9478003C
S11300600C9478000C9478000C9478000C9478002C
S11300700C9478000C9478000C9478000C9478001C
S11300800C9478000C9478000C9478000C9478000C
S11300900C9478000C9478000C9478000C947800FC
S11300A00C9478000C9478000C9478000C947800EC
S11300B00C9478000C9478000C9478000C947800DC
S11300C00C9478000C9478000C94780011241FBED2
S11300D0CFEFD8E0DEBFCDBF21E0A0E0B1E001C0AA
S11300E01D92A830B207E1F70E9431010C9442023C
S11300F00C94000075981092030110920201669B03
S113010004C080B18BB96699FCCF669BFECF2FEFFC
S11301103FEF82E090E0009905C090930301809343
S11301200201F9CF019905C0109203011092020156
S1130130F2CF029905C03093030120930201EBCF63
S11301406699E9CF759A8FEF9FEF9093030180939F
S11301500201669BFECF0895CF93DF938130910512
S1130160D9F424E030E06FEBC2EBD0E051E5A0EB32
S1130170B0E0E1EBF0E044E091E08EB186278EB987
S113018058831C924083B89BFECF1C92108297BB6D
S11301902150310991F71CC0892BD1F422E030E0C1
S11301A06FEBC2EBD0E058E3A0EBB0E0E1EBF0E0A2
S11301B044E091E08EB186278EB958831C92408327
S11301C0B89BFECF1C92108297BB2150310991F746
S11301D0DF91CF910895A9ECB0E02C9128612C9384
S11301E0EAECF0E02081266020832C912C9320817E
S11301F0277F2083DC01CB01880F991FAA1FBB1F17
S1130200880F991FAA1FBB1F9C01AD01220F331F2A
S1130210441F551F220F331F441F551F60E074E213
S113022084EF90E00E942002215031092093CC00F9
S11302303093CD0008958091C00088231CF48091F0
S1130240CE00089580E008958093CE00E0ECF0E0C5
S1130250808186FFFDCFE8ECF0E0808180648083BC
S113026008958FEF8AB98BB99FEB9DB9759A11B830
S113027082B983E886BD14BC84E085BD81E08093A7
S11302806E0060E875E280E090E00E94EB007894F4
S113029010920601109207010FEF1FEFC1E0D0E0AA
S11302A00F2EF3E5FF2EF02D0F2EF4E5EF2EF02D9B
S11302B0009908C0D0930301C0930201CE010E94AB
S11302C0AC001CC0019909C01092030110920201F4
S11302D080E090E00E94AC0011C0029905C0109328
S11302E00301009302010AC0669908C01093030138
S11302F000930201669BFECF0E947A000E941B01BC
S1130300809301018D34A1F6809102019091030143
S1130310019729F4F09200018F2D0E94240180910D
S1130320020190910301029719F6E09200018E2DCB
S11303300E942401BDCF1F920F920FB60F92112479
S11303402F933F938F939F93809106018F5F8093A8
S11303500601893118F483E886BD69C080910701DC
S11303608A3008F05EC09BB12091040180910501A0
S113037030E1239F800D112489278BB980910201DC
S11303809091030181309105A9F4809105018F5F5B
S11303908A3019F0809305012FC0109205018091D5
S11303A004018F5F8A3019F08093040125C01092F4
S11303B0040122C082309105B9F4809105018111B4
S11303C00FC089E08093050180910401811104C06C
S11303D089E08093040110C08150809304010CC013
S11303E081508093050108C0019631F410920501F3
S11303F0109204018FEF8BB99BB12091040180917D
S1130400050130E1239F800D112489278BB91092B7
S1130410060183E886BD809107018F5F8093070101
S113042006C0109206011092070183E886BD9F91D1
S11304308F913F912F910F900FBE0F901F901895A1
S1130440A1E21A2EAA1BBB1BFD010DC0AA1FBB1FD4
S1130450EE1FFF1FA217B307E407F50720F0A21B46
S1130460B30BE40BF50B661F771F881F991F1A94B3
S113047069F760957095809590959B01AC01BD01DD
S10B0480CF010895F894FFCFA9
S9030000FC
