S010000050726F6A656374322E737265630B
S11300000C9466000C9478000C9478000C9478009E
S11300100C9478000C9478000C9478000C9478007C
S11300200C9478000C9478000C9478000C9478006C
S11300300C9478000C9478000C9478000C9478005C
S11300400C9478000C9478000C9461010C94780062
S11300500C9478000C9478000C9478000C9478003C
S11300600C9478000C9478000C9478000C9478002C
S11300700C9478000C9478000C9478000C9478001C
S11300800C9478000C9478000C9478000C9478000C
S11300900C9478000C9478000C9478000C947800FC
S11300A00C9478000C9478000C9478000C947800EC
S11300B00C9478000C9478000C9478000C947800DC
S11300C00C9478000C9478000C94780011241FBED2
S11300D0CFEFD8E0DEBFCDBF21E0A0E0B1E001C0AA
S11300E01D92A630B207E1F70E941B010C9408028E
S11300F00C94000075981092010110920001669B07
S113010004C080B18BB96699FCCF669BFECF2FEFFC
S11301103FEF82E090E0009905C090930101809345
S11301200001F9CF019905C010920101109200015C
S1130130F2CF029905C03093010120930001EBCF67
S11301406699E9CF759A8FEF9FEF909301018093A1
S11301500001669BFECF0895CF93DF938130910514
S1130160D9F424E030E06FEBC2EBD0E051E5A0EB32
S1130170B0E0E1EBF0E044E091E08EB186278EB987
S113018058831C924083B89BFECF1C92108297BB6D
S11301902150310991F71CC0892BD1F422E030E0C1
S11301A06FEBC2EBD0E058E3A0EBB0E0E1EBF0E0A2
S11301B044E091E08EB186278EB958831C92408327
S11301C0B89BFECF1C92108297BB2150310991F746
S11301D0DF91CF910895A9ECB0E02C9128612C9384
S11301E0EAECF0E02081266020832C912C9320817E
S11301F0277F2083DC01CB01880F991FAA1FBB1F17
S1130200880F991FAA1FBB1F9C01AD01220F331F2A
S1130210441F551F220F331F441F551F60E074E213
S113022084EF90E00E94E601215031092093CC0034
S11302303093CD0008958FEF8AB98BB99FEB9DB9A8
S1130240759A11B882B983E886BD14BC84E085BD73
S113025081E080936E0060E875E280E090E00E94A7
S1130260EB00789410920401109205010FEF1FEF38
S1130270C1E0D0E0009908C0D0930101C09300010F
S1130280CE010E94AC00F6CF019909C01092010181
S11302901092000180E090E00E94AC00EBCF029944
S11302A005C01093010100930001E4CF6699E2CFE9
S11302B01093010100930001669BFECF0E947A0017
S11302C0D9CF1F920F920FB60F9211242F933F9301
S11302D08F939F93809104018F5F809304018931F0
S11302E018F483E886BD69C0809105018A3008F05E
S11302F05EC09BB1209102018091030130E1239FF4
S1130300800D112489278BB98091000190910101FE
S113031081309105A9F4809103018F5F8A3019F02F
S1130320809303012FC010920301809102018F5F1B
S11303308A3019F08093020125C01092020122C074
S113034082309105B9F48091030181110FC089E0D5
S11303508093030180910201811104C089E080939C
S1130360020110C08150809302010CC0815080931F
S1130370030108C0019631F41092030110920201A6
S11303808FEF8BB99BB1209102018091030130E181
S1130390239F800D112489278BB91092040183E8CF
S11303A086BD809105018F5F8093050106C0109280
S11303B004011092050183E886BD9F918F913F91BE
S11303C02F910F900FBE0F901F901895A1E21A2E37
S11303D0AA1BBB1BFD010DC0AA1FBB1FEE1FFF1FE5
S11303E0A217B307E407F50720F0A21BB30BE40B35
S11303F0F50B661F771F881F991F1A9469F760957C
S11304007095809590959B01AC01BD01CF01089535
S1070410F894FFCF8A
S9030000FC
